:100000000C942A000C9447000C9447000C94470071
:100010000C9447000C9447000C9447000C94EA00A1
:100020000C9447000C9447000C9447000C94470034
:100030000C9447000C9447000C9447000C94470024
:100040000C9447000C9447000C9447000C94470014
:100050000C94470011241FBECFE5D8E0DEBFCDBF12
:1000600010E0A0E6B0E0EAEEF9E002C005900D92E3
:10007000A038B107D9F710E0A0E8B0E001C01D92A8
:10008000A238B107E1F70E9401010C94F3040C942B
:10009000000080FF02C0C29A01C0C29881FF02C066
:1000A000C39A01C0C39882FF02C0C49A01C0C49819
:1000B00083FF02C0C59A0895C59808951F93182F0D
:1000C000C19A82958F700E944900C198C19A812F70
:1000D0000E944900C19885E88A95F1F71F9108951B
:1000E000C0980E945E000895C09A0E945E00089524
:1000F000CF93DF93EC0103C021960E9474008881A6
:100100008823D1F7DF91CF9108956295660F660F2E
:10011000607C680F862F80680E947000089581E0DF
:100120000E94700080EA9FE00197F1F7089582E055
:100130000E94700080EA9FE00197F1F708951F93F5
:10014000CF93DF93BA9ABB9ABC9ABD9AB99AB89AE0
:1001500080E395E70197F1F7C098C19810E0C0E1FE
:10016000D7E2C19A83E00E944900C198CE0101976D
:10017000F1F71F5F1330A9F7C19A82E00E9449008E
:10018000C19880ED97E00197F1F788E20E94700036
:1001900088E00E94700081E00E94700080EA9FE089
:1001A0000197F1F786E00E9470008CE00E947000D9
:1001B000DF91CF911F9108958EB588608EBD8EB569
:1001C00084608EBD85E39CE09BBD8ABD89B780615C
:1001D00089BF08951F920F920FB60F9211248F932B
:1001E0009F9380918000909181000196909381006F
:1001F000809380009F918F910F900FBE0F901F9062
:1002000018954F925F926F927F928F929F92AF92CA
:10021000BF92CF92DF92EF92FF920F931F93DF93E3
:10022000CF93CDB7DEB7EC970FB6F894DEBF0FBE15
:10023000CDBF0E94DC000E949F000E94970078942E
:1002400010928100109280000E948F0080E060E098
:100250000E94850000E010E049E2E42EF12CEC0E53
:10026000FD1EC8010E941404F701E00FF11F8083F6
:100270000F5F1F4F04311105A1F700E010E039E2D4
:10028000432E512C4C0E5D1E6E010894C11CD11CD6
:1002900025E1A22EB12CAC0EBD1E90E6892E90E079
:1002A000992E88EC682E712C55C00E948F0080E03A
:1002B00060E00E94850000D000D000D0EDB7FEB70E
:1002C0003196ADB7BEB71296DC92CE92119793825B
:1002D0008282F48215820E9413028DB79EB7069621
:1002E0000FB6F8949EBF0FBE8DBFC6010E94780066
:1002F00080E061E00E94850000D000D000D0EDB722
:10030000FEB73196ADB7BEB71296BC92AE921197BA
:1003100093828282158304830E9413028DB79EB755
:1003200006960FB6F8949EBF0FBE8DBFC5010E9402
:100330007800809180009091810024EF31E0F301FA
:100340003197F1F721503040D1F76AE070E00E9418
:10035000E5018B01F201E00FF11FF0809FEFF9162C
:1003600009F0A3CF0E948F0080E060E00E9485002A
:10037000C60163E670E00E940C02C6010E9478008C
:1003800080E061E00E948500C50167E670E00E94A0
:100390000C02C5010E94780080E090E0EC960FB658
:1003A000F894DEBF0FBECDBFCF91DF911F910F91AB
:1003B000FF90EF90DF90CF90BF90AF909F908F9085
:1003C0007F906F905F904F90089597FB092E0726BE
:1003D0000AD077FD04D00CD006D000201AF4709516
:1003E00061957F4F0895F6F7909581959F4F0895F9
:1003F000AA1BBB1B51E107C0AA1FBB1FA617B7074B
:1004000010F0A61BB70B881F991F5A95A9F7809566
:100410009095BC01CD010895FB01DC0101900D9286
:100420000020E1F70895AEE0B0E0E9E1F2E00C94DD
:10043000CA040D891E8986E08C831A8309838FEF95
:100440009FE79E838D839E01275E3F4FCE010196DD
:100450006F89788DA9010E9437022F813885020F9C
:10046000131FF80110822E96E4E00C94E604ABE032
:10047000B0E0EDE3F2E00C94BC043C012B015A0126
:10048000FC0117821682838181FD03C06FEF7FEF2D
:10049000C6C19AE0892E1E010894211C311CF3016B
:1004A0002381F20123FD859123FF81912F01882370
:1004B00009F4B2C1853239F423FD859123FF81917E
:1004C0002F01853229F490E0B3010E943204E7CF76
:1004D000982FFF24EE249924FFE1FF15D0F09B32E2
:1004E00069F09C3228F4903259F0933291F40EC0A6
:1004F0009D3249F0903369F441E024C052E0F52A7E
:1005000084E0F82A28C098E0F92A25C0E0E1FE2A14
:1005100022C0F7FC29C0892F80538A3070F4F6FE80
:1005200005C0989C902C1124980E15C0E89CE02CD6
:100530001124E80EF0E2FF2A0EC09E3229F4F6FCE8
:100540006BC140E4F42A07C09C3619F450E8F52A40
:1005500002C0983649F4F20123FD959123FF919151
:100560002F01992309F0B8CF892F8554833018F0D3
:100570008052833038F444E050E0A40EB51E5FE3AF
:1005800059830FC0933631F0933779F0933509F0E2
:1005900056C020C0F5018081898342E050E0A40E5E
:1005A000B51E610101E010E012C0F501C080D180EC
:1005B000F6FC03C06FEF7FEF02C0692D70E042E0F0
:1005C00050E0A40EB51EC6010E9427048C015FE70F
:1005D000F52214C0F501C080D180F6FC03C06FEF96
:1005E0007FEF02C0692D70E042E050E0A40EB51E1E
:1005F000C6010E941C048C0150E8F52AF3FE07C0D6
:100600001AC080E290E0B3010E943204EA948E2D79
:1006100090E008171907A8F30EC0F601F7FC8591C2
:10062000F7FE81916F0190E0B3010E943204E11066
:10063000EA94015010400115110579F7EAC094368B
:1006400011F0993669F5F7FE08C0F5012081318176
:100650004281538184E090E00AC0F501808191815C
:100660009C01442737FD4095542F82E090E0A80E6E
:10067000B91E9FE6F92257FF09C050954095309565
:1006800021953F4F4F4F5F4FE0E8FE2ACA01B90165
:10069000A1012AE030E00E945E04D82ED21840C0AA
:1006A000953729F41F2D1F7E2AE030E01DC01F2D35
:1006B000197F9F3661F0903720F4983509F0ACC06F
:1006C0000FC0903739F0983709F0A6C004C028E071
:1006D00030E00AC0106114FD146020E130E004C075
:1006E00014FD166020E132E017FF08C0F5016081BB
:1006F00071818281938144E050E008C0F5018081DE
:100700009181BC0180E090E042E050E0A40EB51E73
:10071000A1010E945E04D82ED2188FE7F82EF12294
:10072000F6FE0BC05EEFF522D91438F4F4FE07C0D4
:10073000F2FC05C08FEEF82202C01D2D01C0192D5C
:10074000F4FE0DC0FE01ED0DF11D8081803319F422
:1007500099EEF92208C01F5FF2FE05C003C08F2D7D
:10076000867809F01F5F0F2DF3FC14C0F0FE0FC058
:100770001E1510F09D2C0BC09D2C9E0C911A1E2D49
:1007800006C080E290E0B3010E9432041F5F1E1594
:10079000C0F304C01E1510F4E11A01C0EE2404FFDA
:1007A0000FC080E390E0B3010E94320402FF1DC03D
:1007B00001FD03C088E790E00EC088E590E00BC023
:1007C000802F867891F001FF02C08BE201C080E2A9
:1007D000F7FC8DE290E0B3010E94320406C080E392
:1007E00090E0B3010E9432049A94D914C0F3DA94D1
:1007F000F101ED0DF11D808190E0B3010E94320402
:10080000DD20A9F706C080E290E0B3010E94320427
:10081000EA94EE20C1F743CEF30166817781CB01E4
:100820002B96E2E10C94D804E199FECF9FBB8EBBDE
:10083000E09A99278DB30895FC01059061507040AE
:100840000110D8F7809590958E0F9F1F0895FC0199
:100850006150704001900110D8F7809590958E0FEF
:100860009F1F08950F931F93CF93DF938C01EB018C
:100870008B8181FF1BC082FF0DC02E813F818C8147
:100880009D812817390764F4E881F9810193F98380
:10089000E88306C0E885F985802F0995892B31F416
:1008A0008E819F8101969F838E8302C00FEF1FEF81
:1008B000C801DF91CF911F910F910895FA01AA27E6
:1008C000283051F1203181F1E8946F936E7F6E5F93
:1008D0007F4F8F4F9F4FAF4FB1E03ED0B4E03CD041
:1008E000670F781F891F9A1FA11D680F791F8A1F24
:1008F000911DA11D6A0F711D811D911DA11D20D08B
:1009000009F468943F912AE0269F11243019305D44
:100910003193DEF6CF010895462F4770405D419335
:10092000B3E00FD0C9F7F6CF462F4F70405D4A3382
:1009300018F0495D31FD4052419302D0A9F7EACF4A
:10094000B4E0A6959795879577956795BA95C9F779
:1009500000976105710508959B01AC010A2E06946C
:100960005795479537952795BA95C9F7620F731F25
:10097000841F951FA01D08952F923F924F925F9262
:100980006F927F928F929F92AF92BF92CF92DF929F
:10099000EF92FF920F931F93CF93DF93CDB7DEB704
:1009A000CA1BDB0B0FB6F894DEBF0FBECDBF099498
:1009B0002A88398848885F846E847D848C849B84EF
:1009C000AA84B984C884DF80EE80FD800C811B81FD
:1009D000AA81B981CE0FD11D0FB6F894DEBF0FBE2C
:0A09E000CDBFED010895F894FFCF9C
:1009EA00256400323535004B6F6E69656320637A82
:1009FA007974616E6961207A20706C696B75000088
:00000001FF
