:100000000C942A000C9447000C9447000C94470071
:100010000C9447000C9447000C9447000C94D404B3
:100020000C9447000C9447000C9447000C94470034
:100030000C9447000C9447000C9447000C94470024
:100040000C9447000C9447000C9447000C94470014
:100050000C94470011241FBECFE5D8E0DEBFCDBF12
:1000600011E0A0E6B0E0E4EDF3E102C005900D92EE
:10007000A03CB107D9F711E0A0ECB1E001C01D929E
:10008000A23CB107E1F70E94EB040C94E8090C9440
:100090000000A0E2B0E0EFE4F0E00C94FC0669831D
:1000A0007A838B839C832D833E834F835887CE0135
:1000B0000196BE01675F7F4F0E949203CE010596B5
:1000C000BE016F5E7F4F0E9492039985923088F047
:1000D00089898230C8F0943019F4823051F404C018
:1000E000843029F4923081F488EB90E0C6C09230DD
:1000F00049F420E09A858A89981321E02A87CE0165
:100100000996BBC0823049F420E09A858A89981309
:1001100021E02A8BCE014196B0C02D843E844F84CD
:1001200058886D887E888F88988CEE24FF248701FC
:10013000AA24BB24650140E050E060E070E0E0E00C
:10014000F0E0C10181709070892BE9F0E60CF71C9A
:10015000081D191D9A01AB012A0D3B1D4C1D5D1D8B
:1001600080E090E0A0E0B0E0E614F704080519058F
:1001700020F481E090E0A0E0B0E0BA01A901480FCE
:10018000591F6A1F7B1FAA0CBB1CCC1CDD1C97FED1
:1001900008C081E090E0A0E0B0E0A82AB92ACA2A0D
:1001A000DB2A3196E032F10549F0660C771C881C99
:1001B000991C5694479437942794C3CFFA85EA89BB
:1001C0002B893C898B859C85280F391F2E5F3F4FDB
:1001D00017C0CA0181709070892B61F01695079540
:1001E000F794E79480E090E0A0E0B0E8E82AF92AEC
:1001F0000A2B1B2B76956795579547952F5F3F4F99
:1002000077FDE7CF0CC0440F551F661F771F17FD02
:100210004160EE0CFF1C001F111F21503040403088
:1002200090E0590790E0690790E4790760F32B8F1D
:100230003C8FDB01CA018F779070A070B070803462
:100240009105A105B10561F447FD0AC0E114F1046F
:100250000105110529F0405C5F4F6F4F7F4F4078DB
:100260001A8EFE1711F081E08A8F4D8F5E8F6F8F8F
:1002700078A383E0898FCE0149960E94BD02A096A3
:10028000E2E10C941807A8E0B0E0E9E4F1E00C9496
:1002900005079B01AC0183E08983DA01C901882746
:1002A000B7FD83959927AA27BB27B82E21153105BD
:1002B0004105510519F482E089833AC08823A9F0E9
:1002C000203080E0380780E0480780E8580729F4AC
:1002D00060E070E080E09FEC30C0EE24FF248701F6
:1002E000E21AF30A040B150B02C079018A018EE1B0
:1002F000C82ED12CDC82CB82ED82FE820F83188740
:10030000C801B7010E946E0201971816190684F4FD
:10031000082E04C0EE0CFF1C001F111F0A94D2F718
:10032000ED82FE820F831887C81AD90ADC82CB823D
:10033000BA82CE0101960E94BD022896E9E00C9493
:100340002107ACE0B0E0E7EAF1E00C940C07698328
:100350007A838B839C83CE010196BE016B5F7F4FB6
:100360000E9492038D81823061F1823050F184309D
:1003700021F48E81882351F12EC02F81388537FDDD
:1003800020C06E812F3131051CF06623F9F023C0A7
:100390008EE190E0821B930B29853A854B855C8525
:1003A00004C056954795379527958A95D2F76623C9
:1003B000B1F050954095309521953F4F4F4F5F4F8D
:1003C0000EC020E030E040E050E009C02FEF3FEFEA
:1003D0004FEF5FE704C020E030E040E050E8B901B3
:1003E000CA012C96E2E00C942807A8E0B0E0EBEFFD
:1003F000F1E00C9404077B018C0161157105810506
:10040000910519F482E0898360C083E089838EE1DD
:10041000C82ED12CDC82CB82ED82FE820F8318871E
:10042000C801B7010E946E02FC013197F7FF3BC083
:10043000222733272E1B3F0B57016801022E04C0D1
:10044000D694C794B794A7940A94D2F740E050E0AA
:1004500060E070E081E090E0A0E0B0E004C0880FD0
:10046000991FAA1FBB1F2A95D2F70197A109B109AD
:100470008E219F21A023B1230097A105B10521F072
:1004800041E050E060E070E04A295B296C297D2959
:100490004D835E836F8378878EE190E08E1B9F0B88
:1004A0009C838B8312C0309781F00E2E04C0EE0C1B
:1004B000FF1C001F111F0A94D2F7ED82FE820F83EA
:1004C0001887CE1ADF0ADC82CB821A82CE0101960F
:1004D0000E94BD022896EAE00C942007EF92FF925A
:1004E0000F931F937B018C0180E0E81680E0F806F3
:1004F00081E0080780E0180788F48FEFE816F10420
:100500000105110531F028F088E090E0A0E0B0E0AE
:1005100017C080E090E0A0E0B0E012C080E0E816F4
:1005200080E0F80680E0080781E0180728F088E1FD
:1005300090E0A0E0B0E004C080E190E0A0E0B0E096
:1005400020E230E040E050E0281B390B4A0B5B0B07
:1005500004C016950795F794E7948A95D2F7F701AA
:10056000E054FF4F8081281B310941095109C9011D
:100570001F910F91FF90EF900895DF92EF92FF92FD
:100580000F931F93FC01E480F58006811781D180D1
:100590008081823048F480E090E0A0E1B0E0E82A79
:1005A000F92A0A2B1B2BA5C0843009F49FC0823086
:1005B00021F4EE24FF24870105C0E114F1040105B4
:1005C000110519F4E0E0F0E096C0628173819FEFBD
:1005D000623879070CF05BC022E83FEF261B370B2F
:1005E0002A3131052CF020E030E040E050E02AC014
:1005F000B801A701022E04C07695679557954795D7
:100600000A94D2F781E090E0A0E0B0E004C0880F47
:10061000991FAA1FBB1F2A95D2F70197A109B109FB
:100620008E219F21A023B1230097A105B10521F0C0
:1006300081E090E0A0E0B0E09A01AB01282B392BDB
:100640004A2B5B2BDA01C9018F779070A070B070D4
:1006500080349105A105B10539F427FF09C0205C5C
:100660003F4F4F4F5F4F04C0215C3F4F4F4F5F4F95
:10067000E0E0F0E02030A0E03A07A0E04A07A0E484
:100680005A0710F0E1E0F0E079018A0127C06038F4
:10069000710564F5FB01E158FF4FD801C7018F7761
:1006A0009070A070B07080349105A105B10539F447
:1006B000E7FE0DC080E490E0A0E0B0E004C08FE36E
:1006C00090E0A0E0B0E0E80EF91E0A1F1B1F17FF24
:1006D00005C016950795F794E794319687E016952F
:1006E0000795F794E7948A95D1F705C0EE24FF2487
:1006F0008701EFEFF0E06E2F679566276795902FE3
:100700009F77D794DD24D7948E2F8695492F462B3B
:10071000582F5D29B701CA011F910F91FF90EF90EB
:10072000DF900895FC01DB01408151812281622F1D
:100730006F7770E0221F2227221F9381892F880F55
:10074000822B282F30E0991F9927991F11969C938F
:10075000119721153105A9F541155105610571055F
:1007600011F482E037C082E89FEF13969C938E933A
:1007700012979A01AB0167E0220F331F441F551FE8
:100780006A95D1F783E08C930DC0220F331F441F6D
:10079000551F12968D919C911397019713969C93D8
:1007A0008E931297203080E0380780E0480780E47D
:1007B000580758F314962D933D934D935C931797D8
:1007C00008952F3F310579F44115510561057105F3
:1007D00019F484E08C93089564FF03C081E08C9346
:1007E00012C01C9210C02F57304013963C932E938A
:1007F000129783E08C9387E0440F551F661F771F85
:100800008A95D1F7706414964D935D936D937C93A4
:100810001797089580FF02C0C29A01C0C29881FF55
:1008200002C0C39A01C0C39882FF02C0C49A01C02B
:10083000C49883FF02C0C59A0895C59808951F9370
:10084000182FC19A82958F700E940A04C198C19A8C
:10085000812F0E940A04C19885E88A95F1F71F91BB
:100860000895C0980E941F040895C09A0E941F0412
:100870000895CF93DF93EC0103C021960E943504C5
:1008800088818823D1F7DF91CF9108956295660F13
:10089000660F607C680F862F80680E94310408957F
:1008A00081E00E94310480EA9FE00197F1F708950A
:1008B00082E00E94310480EA9FE00197F1F70895F9
:1008C0001F93CF93DF93BA9ABB9ABC9ABD9AB99AF9
:1008D000B89A80E395E70197F1F7C098C19810E0C6
:1008E000C0E1D7E2C19A83E00E940A04C198CE0118
:1008F0000197F1F71F5F1330A9F7C19A82E00E94B8
:100900000A04C19880ED97E00197F1F788E20E9410
:10091000310488E00E94310481E00E94310480EAC1
:100920009FE00197F1F786E00E9431048CE00E947D
:100930003104DF91CF911F9108953E9A309A319AF8
:10094000329A379A0895369A3699FECF24B135B146
:10095000C9010895A0E0B0E0BC01CD010E94F501FD
:1009600020E030E040EA50E40E94490020E030E01E
:1009700040E85AE30E94490020E030E048EC52E4AD
:100980000E9449000E94A101CB0108958EB58860A4
:100990008EBD8EB584608EBD85E39CE09BBD8ABD17
:1009A00089B7806189BF08951F920F920FB60F9289
:1009B00011248F939F938091C0019091C101019662
:1009C0009093C1018093C0019F918F910F900FBEB2
:1009D0000F901F9018952F923F924F925F926F92B7
:1009E0007F928F929F92AF92BF92CF92DF92EF92BF
:1009F000FF920F931F93DF93CF93CDB7DEB7C4560B
:100A0000D0400FB6F894DEBF0FBECDBF0E94C60423
:100A10000E9460040E9458040E949D04D89A80E0BD
:100A200060E00E9446048E010F5F1F4FC80160E620
:100A300070E00E943307C8010E9439047894109234
:100A4000C1011092C001EE24CC24DD2400E010E0AE
:100A500068EC462E512C4E010894811C911C5FE1DC
:100A6000652E712C6C0E7D1E4AE6242E40E0342E3D
:100A7000C80165E070E00E94D506892B09F063C0CB
:100A8000101611060CF05FC08DB79EB708970FB611
:100A9000F8949EBF0FBE8DBFEDB7FEB73196ADB7D0
:100AA000BEB712969C928E92119733822282C60113
:100AB00064E670E00E94D50675836483C60164E62F
:100AC00070E00E94D506978386830E943A07EDB7AF
:100AD000FEB738960FB6F894FEBF0FBEEDBF0E946A
:100AE000500480E060E00E944604C4010E94390482
:100AF000A090C001B090C10180E29EE4F201319764
:100B0000F1F70197D9F78E2D8695082F10E0000F89
:100B1000111F000F111F080D191DB601882777FD41
:100B20008095982F0E944301D801DC966D937D93A8
:100B30008D939C93DF97E394C50164E170E00E947C
:100B4000D5068B018DC03898369A3699FECF64B1A0
:100B500075B180E090E00E94F50120E030E040EACD
:100B600050E40E94490020E030E040E85AE30E944F
:100B7000490020E030E048EC52E40E9449000E9425
:100B8000A1016B0184EF91E0F2013197F1F7019738
:100B9000D9F78091C0019091C10164E170E00E9499
:100BA000D5068B01EDB7FEB738970FB6F894FEBFA8
:100BB0000FBEEDBF3196ADB7BEB712969C928E9226
:100BC00011978CE790E093838283C60164E670E01E
:100BD0000E94D50675836483C60164E670E00E94B6
:100BE000D506978386830E943A07ADB7BEB718969D
:100BF0000FB6F894BEBF0FBEADBF0E94500480E098
:100C000060E00E944604C4010E94390480E061E073
:100C10000E944604EDB7FEB738970FB6F894FEBFB2
:100C20000FBEEDBF3196ADB7BEB712967C926E92F5
:100C3000119784E890E093838283158304838E2D3B
:100C40008695868317820E943A07ADB7BEB718967D
:100C50000FB6F894BEBF0FBEADBFC3010E943904EA
:100C6000B5E0BE1508F004CFE6944E2C55242DE3D4
:100C7000622E712C6C0E7D1E90E0892E90E0992ED4
:100C8000AA24BB248FE1282E312C2C0E3D1EF3010B
:100C900060817181828193810E94A1017B018C011D
:100CA000CB0164E670E00E94D506D62EC72EC401A3
:100CB0000E943B09C70164E670E00E94D506182F28
:100CC000092FC4010196612F0E943B090E94500424
:100CD00080E060E00E944604CE01019664E970E085
:100CE0000E943307CE0101960E94390480E061E042
:100CF0000E9446040894A11CB11C8DB79EB70A97A8
:100D00000FB6F8949EBF0FBE8DBFEDB7FEB73196FC
:100D1000ADB7BEB712963C922E92119786EA90E03C
:100D200093838283B582A482D682C782108701878B
:100D30000E943A07ADB7BEB71A960FB6F894BEBF79
:100D40000FBEADBFC1010E94390480E197E2E8EC1B
:100D5000F0E03197F1F70197D1F7E4E0F0E06E0EA3
:100D60007F1E82E090E0880E991EA414B5040CF456
:100D70008ECF80E090E0CC59DF4F0FB6F894DEBF05
:100D80000FBECDBFCF91DF911F910F91FF90EF90DC
:100D9000DF90CF90BF90AF909F908F907F906F909B
:100DA0005F904F903F902F90089597FB092E072654
:100DB0000AD077FD04D00CD006D000201AF470952C
:100DC00061957F4F0895F6F7909581959F4F08950F
:100DD000AA1BBB1B51E107C0AA1FBB1FA617B70761
:100DE00010F0A61BB70B881F991F5A95A9F780957D
:100DF0009095BC01CD0108952F923F924F925F9242
:100E00006F927F928F929F92AF92BF92CF92DF921A
:100E1000EF92FF920F931F93CF93DF93CDB7DEB77F
:100E2000CA1BDB0B0FB6F894DEBF0FBECDBF099413
:100E30002A88398848885F846E847D848C849B846A
:100E4000AA84B984C884DF80EE80FD800C811B8178
:100E5000AA81B981CE0FD11D0FB6F894DEBF0FBEA7
:100E6000CDBFED010895FB01DC0101900D92002042
:100E7000E1F70895AEE0B0E0E0E4F7E00C940A0793
:100E80000D891E8986E08C831A8309838FEF9FE783
:100E90009E838D839E01275E3F4FCE0101966F8911
:100EA000788DA9010E945E072F813885020F131FDC
:100EB000F80110822E96E4E00C942607ABE0B0E037
:100EC000E4E6F7E00C94FC063C012B015A01FC011E
:100ED00017821682838181FD03C06FEF7FEFC6C149
:100EE0009AE0892E1E010894211C311CF3012381F4
:100EF000F20123FD859123FF81912F01882309F4BD
:100F0000B2C1853239F423FD859123FF81912F01F0
:100F1000853229F490E0B3010E945E09E7CF982F53
:100F2000FF24EE249924FFE1FF15D0F09B3269F0F5
:100F30009C3228F4903259F0933291F40EC09D32D5
:100F400049F0903369F441E024C052E0F52A84E08E
:100F5000F82A28C098E0F92A25C0E0E1FE2A22C03C
:100F6000F7FC29C0892F80538A3070F4F6FE05C043
:100F7000989C902C1124980E15C0E89CE02C11240C
:100F8000E80EF0E2FF2A0EC09E3229F4F6FC6BC197
:100F900040E4F42A07C09C3619F450E8F52A02C050
:100FA000983649F4F20123FD959123FF91912F0189
:100FB000992309F0B8CF892F8554833018F08052D7
:100FC000833038F444E050E0A40EB51E5FE359834B
:100FD0000FC0933631F0933779F0933509F056C04E
:100FE00020C0F5018081898342E050E0A40EB51E47
:100FF000610101E010E012C0F501C080D180F6FC73
:1010000003C06FEF7FEF02C0692D70E042E050E057
:10101000A40EB51EC6010E9453098C015FE7F5229C
:1010200014C0F501C080D180F6FC03C06FEF7FEFE4
:1010300002C0692D70E042E050E0A40EB51EC6016A
:101040000E9448098C0150E8F52AF3FE07C01AC037
:1010500080E290E0B3010E945E09EA948E2D90E058
:1010600008171907A8F30EC0F601F7FC8591F7FEE3
:1010700081916F0190E0B3010E945E09E110EA9452
:10108000015010400115110579F7EAC0943611F0AE
:10109000993669F5F7FE08C0F5012081318142815A
:1010A000538184E090E00AC0F501808191819C0128
:1010B000442737FD4095542F82E090E0A80EB91EDA
:1010C0009FE6F92257FF09C050954095309521952C
:1010D0003F4F4F4F5F4FE0E8FE2ACA01B901A1011F
:1010E0002AE030E00E948A09D82ED21840C09537F5
:1010F00029F41F2D1F7E2AE030E01DC01F2D197F0F
:101100009F3661F0903720F4983509F0ACC00FC0DD
:10111000903739F0983709F0A6C004C028E030E0D5
:101120000AC0106114FD146020E130E004C014FD19
:10113000166020E132E017FF08C0F501608171817F
:101140008281938144E050E008C0F5018081918163
:10115000BC0180E090E042E050E0A40EB51EA10189
:101160000E948A09D82ED2188FE7F82EF122F6FEB7
:101170000BC05EEFF522D91438F4F4FE07C0F2FC80
:1011800005C08FEEF82202C01D2D01C0192DF4FEFE
:101190000DC0FE01ED0DF11D8081803319F499EE33
:1011A000F92208C01F5FF2FE05C003C08F2D8678AC
:1011B00009F01F5F0F2DF3FC14C0F0FE0FC01E15C9
:1011C00010F09D2C0BC09D2C9E0C911A1E2D06C05C
:1011D00080E290E0B3010E945E091F5F1E15C0F31C
:1011E00004C01E1510F4E11A01C0EE2404FF0FC064
:1011F00080E390E0B3010E945E0902FF1DC001FD83
:1012000003C088E790E00EC088E590E00BC0802F17
:10121000867891F001FF02C08BE201C080E2F7FC0A
:101220008DE290E0B3010E945E0906C080E390E089
:10123000B3010E945E099A94D914C0F3DA94F101C3
:10124000ED0DF11D808190E0B3010E945E09DD206B
:10125000A9F706C080E290E0B3010E945E09EA941B
:10126000EE20C1F743CEF30166817781CB012B9647
:10127000E2E10C941807262FE199FECF9FBB8EBBAD
:101280002DBB0FB6F894E29AE19A0FBE019608952D
:10129000FC010590615070400110D8F78095909541
:1012A0008E0F9F1F0895FC01615070400190011046
:1012B000D8F7809590958E0F9F1F08950F931F93D9
:1012C000CF93DF938C01EB018B8181FF1BC082FFE9
:1012D0000DC02E813F818C819D812817390764F4D0
:1012E000E881F9810193F983E88306C0E885F985EF
:1012F000802F0995892B31F48E819F8101969F83E0
:101300008E8302C00FEF1FEFC801DF91CF911F91B5
:101310000F910895FA01AA27283051F1203181F167
:10132000E8946F936E7F6E5F7F4F8F4F9F4FAF4FED
:10133000B1E03ED0B4E03CD0670F781F891F9A1F00
:10134000A11D680F791F8A1F911DA11D6A0F711DB4
:10135000811D911DA11D20D009F468943F912AE0C0
:10136000269F11243019305D3193DEF6CF010895A8
:10137000462F4770405D4193B3E00FD0C9F7F6CFD9
:10138000462F4F70405D4A3318F0495D31FD4052A1
:10139000419302D0A9F7EACFB4E0A6959795879537
:1013A00077956795BA95C9F7009761057105089516
:1013B0009B01AC010A2E06945795479537952795C2
:1013C000BA95C9F7620F731F841F951FA01D08955A
:0413D000F894FFCFBF
:1013D40057656C636F6D652021005A617069736194
:1013E4006E6F3A2025642E256420560025642E2530
:1013F40064205600256420732C206C5F706F6D3A56
:10140400202564005A61706973616E6520506F6DA8
:10141400696172793A00506F6D6961722025643A8E
:101424002025642E25645600000000000000000002
:101434000001020203030303040404040404040477
:101444000505050505050505050505050505050548
:101454000606060606060606060606060606060628
:101464000606060606060606060606060606060618
:1014740007070707070707070707070707070707F8
:1014840007070707070707070707070707070707E8
:1014940007070707070707070707070707070707D8
:1014A40007070707070707070707070707070707C8
:1014B40008080808080808080808080808080808A8
:1014C4000808080808080808080808080808080898
:1014D4000808080808080808080808080808080888
:1014E4000808080808080808080808080808080878
:1014F4000808080808080808080808080808080868
:101504000808080808080808080808080808080857
:101514000808080808080808080808080808080847
:101524000808080808080808080808080808080837
:00000001FF
