:100000000C942A000C9434000C9434000C943400AA
:100010000C9434000C9434000C9434000C94340090
:100020000C9434000C9434000C9434000C94340080
:100030000C9434000C9434000C9434000C94340070
:100040000C9434000C9434000C9434000C94340060
:100050000C94340011241FBECFE5D8E0DEBFCDBF25
:100060000E945A000C9482000C94000082B390E429
:10007000892782BB88E893E128EC30E0F9013197C9
:10008000F1F70197D9F70895969A88EE93E028EC56
:1000900030E0F9013197F1F70197D9F70895969873
:1000A00088EE93E028EC30E0F9013197F1F7019701
:1000B000D9F708950F931F93CF93DF938E9A959A54
:1000C000C1E0D0E000E21EE4859B04C006C0C80188
:1000D0000197F1F7859BFBCF2196C230D10561F0E6
:1000E000C330D10561F0C130D10519F0C1E0D0E0D5
:1000F000EBCF0E943600E8CF0E944400E5CF0E947B
:080100004F00E2CFF894FFCF9D
:00000001FF
