:100000000C942A000C943F000C943F000C943F0089
:100010000C943F000C943F000C943F000C943F0064
:100020000C943F000C943F000C943F000C943F0054
:100030000C943F000C943F000C943F000C943F0044
:100040000C943F000C943F000C943F000C943F0034
:100050000C943F0011241FBECFE5D8E0DEBFCDBF1A
:1000600010E0A0E6B0E0EEE1FCE002C005900D92E9
:10007000A837B107D9F70E943F020C940D060C94E3
:10008000000080FF02C0C29A01C0C29881FF02C076
:10009000C39A01C0C39882FF02C0C49A01C0C49829
:1000A00083FF02C0C59A0895C59808951F93182F1D
:1000B000C19A82958F700E944100C198C19A812F88
:1000C0000E944100C19885E88A95F1F71F91089533
:1000D000C0980E9456000895C09A0E945600089544
:1000E000CF93DF93EC0103C021960E946C008881BE
:1000F0008823D1F7DF91CF9108956295660F660F3F
:10010000607C680F862F80680E946800089581E0F7
:100110000E94680080EA9FE00197F1F7089582E06D
:100120000E94680080EA9FE00197F1F708951F930D
:10013000CF93DF93BA9ABB9ABC9ABD9AB99AB89AF0
:1001400080E395E70197F1F7C098C19810E0C0E10E
:10015000D7E2C19A83E00E944100C198CE01019785
:10016000F1F71F5F1330A9F7C19A82E00E944100A6
:10017000C19880ED97E00197F1F788E20E9468004E
:1001800088E00E94680081E00E94680080EA9FE0A9
:100190000197F1F786E00E9468008CE00E946800F9
:1001A000DF91CF911F910895CF92DF92EF92FF924E
:1001B0000F931F93CF93DF93FC01DB017A01413052
:1001C000510549F08B016F0160E070E0A0E0B0E004
:1001D00041E050E074C06C916B3299F06D32C1F027
:1001E0006A3219F040E050E06FC022813381808193
:1001F0009181289FA001299F500D389F500D1124F7
:1002000063C04281538180819181480F591F5CC036
:100210004081518182819381481B590B55C04130E7
:10022000510509F5E80188818B3281F08D32A9F002
:100230008A32C9F42281338180819181289FB00163
:10024000299F700D389F700D11240DC0628173813C
:1002500080819181680F791F06C0608171818281E0
:100260009381681B790BE80189818B3289F08D328B
:10027000A9F08A32D9F4D60114968D919C911597E4
:10028000689FD001699FB00D789FB00D11240EC0FA
:10029000E601AC81BD81A60FB71F08C0D601149638
:1002A0008D919C911597DB01A81BB90B4F5F5F4F98
:1002B0000F5F1F4FC2E0D0E0CC0EDD1EBD01E41683
:1002C000F5060CF0ACCFAD01CA01DF91CF911F91C3
:1002D0000F91FF90EF90DF90CF9008958F929F92B3
:1002E000AF92BF92CF92DF92EF92FF920F931F9344
:1002F000CF93DF936FE670E0EE24FF244CE0C42E32
:10030000D12C00E010E031E0832E912C28ECA22EBD
:10031000B12C22B3C401FB01008002C0880F991FD9
:100320000A94E2F7482F282B22BBA7E6B0E0C0E0F2
:10033000D0E080B32D913C91119790E0022E02C045
:10034000959587950A94E2F780FF5EC084EF91E06F
:10035000F5013197F1F70197D9F780B390E0022EBC
:1003600002C0959587950A94E2F780FF4DC080E022
:1003700061E00E947D00CC0FDD1FC959DF4F48812D
:10038000598121E030E0042E02C0220F331F0A946D
:10039000E2F760ED77E003C0CB010197F1F780B39E
:1003A00090E082239323892BB9F7F801EE0FFF1F0A
:1003B0004330510581F422B3E159FF4F81E090E0D1
:1003C000008002C0880F991F0A94E2F7809582236B
:1003D00082BB960116C022B3E159FF4F81E090E045
:1003E000008002C0880F991F0A94E2F7809582234B
:1003F00082BBFAE0EF16F10419F420E030E031C0DE
:1004000097012F5F3F4F2DC02330310521F0089415
:10041000E11CF11C03C00894C11CD11C219612964A
:10042000C430D10509F085CF82B34095482342BB43
:100430000F5F1F4F6E5F7F4F0430110509F069CFCA
:10044000A89A989B03C02FEF3FEF0BC088EE93E074
:1004500028EC30E0F9013197F1F70197D9F724E161
:1004600030E0C901DF91CF911F910F91FF90EF9084
:10047000DF90CF90BF90AF909F908F9008952F9274
:100480003F924F925F926F927F928F929F92AF9224
:10049000BF92CF92DF92EF92FF920F931F93DF9361
:1004A000CF93CDB7DEB7CF54D0400FB6F894DEBFB0
:1004B0000FBECDBF0E9497000E948F00DE0198966C
:1004C00088E2FD0111928A95E9F79E012F5F3F4F67
:1004D00083E1F90111928A95E9F700E010E0AA247E
:1004E000BB24EE24FF24CC24DD24F4E14F2E512C38
:1004F0004C0E5D1E49013D01E8E22E2E312C2A0EE4
:100500003B1E0E946E019C01FFEF8F3F9F07C9F3C6
:1005100084319105B1F38E30910561F18F309105F1
:1005200044F48A30910581F08D30910509F049C07D
:1005300008C08F30910571F08031910509F041C0FC
:1005400029C0F301D40120C0F401EE0DFF1D8AE2A1
:10055000808305C0F401EE0DFF1D9DE29083089499
:10056000E11CF11C0894A11CB11C00E010E0CC249B
:10057000DD243DC0F401EE0DFF1DABE2A083EFCF03
:100580001192119280E38D93E215F305C9F700E013
:1005900010E012C0C301B401A5010E94D4008C0177
:1005A000F301D40104C01192119290E39D93E215DE
:1005B000F305C9F719A708A7AA24BB24EE24FF2432
:1005C000D6CFC80173E0880F991F7A95E1F7000F25
:1005D000111F080F191F020F131FF501EE0FFF1F48
:1005E000E80DF91D10A707A30894C11CD11C0E9497
:1005F000870080E060E00E947D00A4E0CA16D1047C
:1006000024F500D000D000D0EDB7FEB73196ADB7DD
:10061000BEB712965C924E92119780E690E093835B
:100620008283158304830E943503ADB7BEB7169647
:100630000FB6F894BEBF0FBEADBFC2010E947000DE
:1006400080E061E00E947D005CCFC20163E670E063
:100650000E942E03C2010E94700053CFFB01DC01F7
:1006600001900D920020E1F70895AEE0B0E0EBE3D9
:10067000F3E00C94E4050D891E8986E08C831A83CF
:1006800009838FEF9FE79E838D839E01275E3F4FF7
:10069000CE0101966F89788DA9010E9459032F819F
:1006A0003885020F131FF80110822E96E4E00C9497
:1006B0000006ABE0B0E0EFE5F3E00C94D6053C01BA
:1006C0002B015A01FC0117821682838181FD03C030
:1006D0006FEF7FEFC6C19AE0892E1E010894211C9E
:1006E000311CF3012381F20123FD859123FF8191C8
:1006F0002F01882309F4B2C1853239F423FD859195
:1007000023FF81912F01853229F490E0B3010E94EB
:100710004C05E7CF982FFF24EE249924FFE1FF1525
:10072000D0F09B3269F09C3228F4903259F0933229
:1007300091F40EC09D3249F0903369F441E024C039
:1007400052E0F52A84E0F82A28C098E0F92A25C06A
:10075000E0E1FE2A22C0F7FC29C0892F80538A30AD
:1007600070F4F6FE05C0989C902C1124980E15C0CC
:10077000E89CE02C1124E80EF0E2FF2A0EC09E3225
:1007800029F4F6FC6BC140E4F42A07C09C3619F446
:1007900050E8F52A02C0983649F4F20123FD9591FC
:1007A00023FF91912F01992309F0B8CF892F855408
:1007B000833018F08052833038F444E050E0A40EC7
:1007C000B51E5FE359830FC0933631F0933779F04C
:1007D000933509F056C020C0F5018081898342E03D
:1007E00050E0A40EB51E610101E010E012C0F50159
:1007F000C080D180F6FC03C06FEF7FEF02C0692D8F
:1008000070E042E050E0A40EB51EC6010E94410512
:100810008C015FE7F52214C0F501C080D180F6FCA1
:1008200003C06FEF7FEF02C0692D70E042E050E03F
:10083000A40EB51EC6010E9436058C0150E8F52AAB
:10084000F3FE07C01AC080E290E0B3010E944C059D
:10085000EA948E2D90E008171907A8F30EC0F60150
:10086000F7FC8591F7FE81916F0190E0B3010E9442
:100870004C05E110EA94015010400115110579F77B
:10088000EAC0943611F0993669F5F7FE08C0F50113
:10089000208131814281538184E090E00AC0F501DA
:1008A000808191819C01442737FD4095542F82E03F
:1008B00090E0A80EB91E9FE6F92257FF09C0509597
:1008C0004095309521953F4F4F4F5F4FE0E8FE2A0E
:1008D000CA01B901A1012AE030E00E947805D82EB2
:1008E000D21840C0953729F41F2D1F7E2AE030E032
:1008F0001DC01F2D197F9F3661F0903720F4983569
:1009000009F0ACC00FC0903739F0983709F0A6C095
:1009100004C028E030E00AC0106114FD146020E13A
:1009200030E004C014FD166020E132E017FF08C07B
:10093000F501608171818281938144E050E008C0BB
:10094000F50180819181BC0180E090E042E050E0BF
:10095000A40EB51EA1010E947805D82ED2188FE7EB
:10096000F82EF122F6FE0BC05EEFF522D91438F412
:10097000F4FE07C0F2FC05C08FEEF82202C01D2D68
:1009800001C0192DF4FE0DC0FE01ED0DF11D808199
:10099000803319F499EEF92208C01F5FF2FE05C0FA
:1009A00003C08F2D867809F01F5F0F2DF3FC14C054
:1009B000F0FE0FC01E1510F09D2C0BC09D2C9E0C40
:1009C000911A1E2D06C080E290E0B3010E944C05F2
:1009D0001F5F1E15C0F304C01E1510F4E11A01C0FC
:1009E000EE2404FF0FC080E390E0B3010E944C05A9
:1009F00002FF1DC001FD03C088E790E00EC088E53E
:100A000090E00BC0802F867891F001FF02C08BE24E
:100A100001C080E2F7FC8DE290E0B3010E944C053A
:100A200006C080E390E0B3010E944C059A94D9146B
:100A3000C0F3DA94F101ED0DF11D808190E0B30176
:100A40000E944C05DD20A9F706C080E290E0B301CA
:100A50000E944C05EA94EE20C1F743CEF301668173
:100A60007781CB012B96E2E10C94F205FC01059015
:100A7000615070400110D8F7809590958E0F9F1FA0
:100A80000895FC016150704001900110D8F78095E5
:100A900090958E0F9F1F08950F931F93CF93DF9311
:100AA0008C01EB018B8181FF1BC082FF0DC02E8169
:100AB0003F818C819D812817390764F4E881F98191
:100AC0000193F983E88306C0E885F985802F0995AD
:100AD000892B31F48E819F8101969F838E8302C082
:100AE0000FEF1FEFC801DF91CF911F910F91089574
:100AF000FA01AA27283051F1203181F1E8946F934F
:100B00006E7F6E5F7F4F8F4F9F4FAF4FB1E03ED0F4
:100B1000B4E03CD0670F781F891F9A1FA11D680F92
:100B2000791F8A1F911DA11D6A0F711D811D911DC5
:100B3000A11D20D009F468943F912AE0269F11243A
:100B40003019305D3193DEF6CF010895462F47709E
:100B5000405D4193B3E00FD0C9F7F6CF462F4F70F9
:100B6000405D4A3318F0495D31FD4052419302D057
:100B7000A9F7EACFB4E0A6959795879577956795FD
:100B8000BA95C9F700976105710508959B01AC01FD
:100B90000A2E06945795479537952795BA95C9F724
:100BA000620F731F841F951FA01D08952F923F92FF
:100BB0004F925F926F927F928F929F92AF92BF926D
:100BC000CF92DF92EF92FF920F931F93CF93DF9319
:100BD000CDB7DEB7CA1BDB0B0FB6F894DEBF0FBE76
:100BE000CDBF09942A88398848885F846E847D84C3
:100BF0008C849B84AA84B984C884DF80EE80FD80C5
:100C00000C811B81AA81B981CE0FD11D0FB6F8943A
:0E0C1000DEBF0FBECDBFED010895F894FFCFFB
:100C1E002575004F564C0000000100020003000530
:080C2E000006000700040000AD
:00000001FF
