:100000000C942A000C943F000C943F000C943F0089
:100010000C943F000C943F000C943F000C943F0064
:100020000C943F000C943F000C943F000C943F0054
:100030000C943F000C943F000C943F000C943F0044
:100040000C943F000C943F000C943F000C943F0034
:100050000C943F0011241FBECFE5D8E0DEBFCDBF1A
:1000600010E0A0E6B0E0E0E9F2E002C005900D92F9
:10007000A837B107D9F70E940C010C9446010C94E3
:100080000000613081F422B3E82FF0E0E05AFF4F26
:1000900081E090E0008002C0880F991F0A94E2F787
:1000A000282B22BB0895662381F422B3E82FF0E0C9
:1000B000E05AFF4F81E090E0008002C0880F991F56
:1000C0000A94E2F78095822382BB08950F931F93D1
:1000D000082F10E0812F602F0E9441001F5F183011
:1000E000C9F71F910F910895AF92BF92CF92DF92FF
:1000F000EF92FF920F931F93CF93DF9300E710E0EF
:10010000C0E0D0E021E0E22EF12C98ECA92EB12C39
:1001100080EDC82E87E0D82E25B3C701F8010080F6
:1001200002C0880F991F0A94E2F7482F282B25BB9D
:10013000A8E6B0E0582F509583B32D913C911197CC
:1001400090E0022E02C0959587950A94E2F780FF11
:100150002DC084EF91E0F5013197F1F70197D9F7C0
:1001600083B390E0022E02C0959587950A94E2F73A
:1001700080FF1CC0B701022E02C0660F771F0A94D1
:10018000E2F703C0C6010197F1F783B390E086233D
:100190009723892BB9F72330310521F485B38523C3
:1001A00085BB08C085B3582355BB17C02330310524
:1001B00009F021961296F0E0A037BF0709F0BCCFF6
:1001C00085B34095482345BB0E5F1F4F80E008373D
:1001D000180709F0A1CFCFEFDFEFCE01DF91CF916C
:1001E0001F910F91FF90EF90DF90CF90BF90AF9055
:1001F0000895E0E6F0E041E050E021B3CA0101904B
:1002000002C0880F991F0A94E2F7282B21BB80E0D7
:10021000E836F80791F708950F931F93CF93DF9374
:100220000E94F9000E94740008EC10E00E94740023
:10023000EC018FEFCF3FD80709F1C830D105A0F40A
:1002400080B390E0FE01E05AFF4F008002C0959518
:1002500087950A94E2F780FF03C08C2F60E002C00C
:100260008C2F61E00E944100C930D10511F481E07A
:1002700003C02B9719F480E00E94660088EE93E09B
:10028000F8013197F1F7019789F2FACFF894FFCF8F
:10029000000102030405060700000100020003003C
:0802A000050006000700040040
:00000001FF
